:020000021000EC
:10E0000049C0000064C0000062C0000060C00000A1
:10E010005EC000005CC000005AC0000058C0000094
:10E0200056C0000054C0000052C0000050C00000A4
:10E030004EC000004CC000004AC0000048C00000B4
:10E0400046C0000044C0000042C0000040C00000C4
:10E050003EC000003CC000003AC0000038C00000D4
:10E0600036C0000034C0000032C0000030C00000E4
:10E070002EC000002CC000002AC0000028C00000F4
:10E0800026C0000024C0000022C0000000010800DB
:10E090000604000111241FBECFEFD0E1DEBFCDBFCB
:10E0A00011E0A0E0B1E0E6EBFFEE01E00BBF02C043
:10E0B00007900D92A433B107D9F729E0A4E3B1E0AA
:10E0C00001C01D92A837B207E1F7F3D572C798CF08
:10E0D0004BBFFC0103C0FC010B0161E060936800D1
:10E0E000E8956091680060FDFCCF11240895C09808
:10E0F000962F9F71982B9FB9779BFECF1FB8779B68
:10E10000FECF67FD03C0C09A8FB108951FB8779BFB
:10E11000FECFF9CFC0986F71682B6FB9779BFECF98
:10E120004FB9779BFECFC09A0895FB01C0982AE3B0
:10E130002FB9779BFECF8E0F9F1FE817F90731F09D
:10E140001FB8779BFECF2FB12193F7CF1082C09AD3
:10E150000895C0982AE72FB9779BFECF860F971FA7
:10E160006817790739F0FB012191BF012FB9779B1F
:10E17000FECFF6CFC09A08951F93CF93DF93182F49
:10E180001076C12FD0E02091360130E0C217D307BE
:10E1900079F043E06FE180EABDDFAE0185E055959F
:10E1A00047958A95E1F76FE180E8B4DF1093360177
:10E1B000DF91CF911F910895CF93DF931F92CDB739
:10E1C000DEB7682F6983D8DF698180E00F90DF9127
:10E1D000CF918DCF1F93CF93DF931F92CDB7DEB733
:10E1E000182F6983C9DF4981612F80E40F90DF9187
:10E1F000CF911F918FCFCF93682F84EDEBDF61E03C
:10E2000082EDE8DF8AEED8DF80FDFCCF60E082EDB2
:10E21000E1DF89EDD1DFC82F88EDCEDF2C2F30E094
:10E22000322F2227A901482BCA01CF9108951F93AD
:10E23000CF93DF931F92CDB7DEB7162F682F84EDF3
:10E240007983C8DF612F86EDC5DF7981672F87ED80
:10E25000C1DF18E28AEEB0DF80FF04C0812F8A950B
:10E26000F1F7F8CF0F90DF91CF911F910895CF93E1
:10E27000DF93EC01B89AC09A87B3866087BBBB98DE
:10E28000C298C19880E58DB9709A4FEF60E08FEF2A
:10E2900041DF80E090E00197F1F710923501109294
:10E2A000340160E088E096DF60E089E093DF60E0C1
:10E2B0008CE090DF60E08DE08DDF6FEF8AE08ADF39
:10E2C00069E18BE087DF60E084E084DF6AE185E07C
:10E2D00081DF6FEF86E07EDF6FE187E07BDF60EB61
:10E2E00088E378DF6FE388E275DF60E389E272DF5D
:10E2F00069EF80E36FDF67EF81E36CDF6DE080EC57
:10E3000069DF60E081EC66DF42E362EC80E802DF17
:10E3100062E186EC5FDF6CE087EC5CDF62E184EC5D
:10E3200059DF6CED8AEC56DF65E08BEC53DF6881DA
:10E3300084EE50DF698185EE4DDF6A8182EE4ADF2F
:10E340006B8183EE47DF6C8180EE44DF6D8181EE6F
:10E3500041DF60E071E080E16ADF8FE10DDF40ECDA
:10E360006BE180E8D7DE44E06FE180E8DF91CF9198
:10E37000D1CE81E140DF92FB882780F908950F9389
:10E380001F93CF93DF93EC018B016FE180E0AFDE51
:10E3900083FF0DC08CE110DF81FFF7CF40E86FE114
:10E3A00080E8B8DE40E86FE180EAB4DEEECF60E0FE
:10E3B00082E010DF6AE183E00DDF6C2F86E00ADF88
:10E3C000CE01965E692F87E005DF40E060E08AE7D6
:10E3D000A1DEB801CE01BDDE48E06FE180E8DF914B
:10E3E000CF911F910F9196CE9F92AF92BF92CF92F5
:10E3F000DF92EF92FF920F931F93CF93DF937C01F5
:10E400006B0189E3D9DE882309F44EC060913401A1
:10E41000C091350180E0DEDE6C2F81E0DBDE60E064
:10E420008AE365DE082F60E08AE361DE10E0182BE6
:10E43000109335010093340160E08AE358DEC82F61
:10E4400060E08AE354DE982E60E08AE350DEA82E76
:10E4500060E08AE34CDEA7FE0EC09701215031092F
:10E46000D0E0D92924972C173D0708F4E901B6011B
:10E47000CE015BDE02C0C0E0D0E06FEF01308AE188
:10E48000180724F08CE0A6DE69E106C0600F8CE07E
:10E49000A1DE01501109612F8DE09CDE40E46EE1A8
:10E4A00080E838DECE0102C080E090E0DF91CF91BD
:10E4B0001F910F91FF90EF90DF90CF90BF90AF90A2
:10E4C0009F900895FF920F931F93CF93DF93FB01CB
:10E4D000413051F4AB014850510960E070E04F5EAB
:10E4E0005F4F6F4F7F4F0FC0423051F4AB01485028
:10E4F000510960E070E04A5F5F4F6F4F7F4F03C08C
:10E5000040E050E0BA01EF01DC01C230D10598F0E3
:10E510000C9110E020E030E0322F212F102F002747
:10E520001196FC9011970F29400F511F621F731F06
:10E5300012962297EACFDF01AE7FA80FB91FE0FF46
:10E540000CC08C9190E0A0E0B0E0BA2FA92F982FDA
:10E550008827480F591F6A1F7B1FCB01AA27BB279B
:10E560000097A105B10519F066277727F2CFCA01F8
:10E5700080959095DF91CF911F910F91FF90089515
:10E58000009741F026E0FC01A6E4B1E001900D9275
:10E590002A95E1F7089569327105A8F0FC012485F8
:10E5A000283089F42585263071F4DC019696E2E462
:10E5B000F1E09D918191981306C081E0E634F8075F
:10E5C000C1F781E0089580E00895FC016A32710589
:10E5D000B0F08485883099F48585811110C08685D6
:10E5E000853469F47E96A2E4B1E091918D919813FF
:10E5F00006C081E0A634B807C1F781E0089580E045
:10E600000895CF93DF93E6E4F1E0DC0116962C91B8
:10E61000EC012993CE0121912D93D1E0EC34FD073B
:10E62000B1F7DF91CF910895CF93DF93EC01188E6E
:10E63000198E80E48C8B1D8A8E8B40E064E170E043
:10E64000CE010E963FDF988F898FDF91CF9108958D
:10E65000CF93DF93EC016E96E2E4F1E0DC015A9691
:10E660002C91299321912D9321E0E634F207C1F7F3
:10E67000DF91CF91D9CFFC01BA96DC019E968696A8
:10E680002291620F711D2E916C93442311F020830F
:10E6900001C01082672F7727E817F90789F70895D7
:10E6A000CF93DF93EC018CA19AA19CA38AA38DA1A7
:10E6B0009BA19DA38BA3CE01DEDF1AAA1BAA80E536
:10E6C0008EA7DF91CF910895CF93DF93EC0199DF6F
:10E6D0001C8A82E08D8BCE01809646E451E0DE01FB
:10E6E00056962C91FC012193CF01FA012191AF01A3
:10E6F0002D93F1E04C345F07A1F7CE01869642E4FA
:10E7000051E0DE015C962C91FC012193CF01FA01CE
:10E710002191AF012D93F1E046345F07A1F7BE01CF
:10E720008AE290E0DF91CF912ACE0F931F93CF938F
:10E73000DF93EC018B0165DFCE018ADF1AA29CA179
:10E74000983F18F08DA18F5F8DA3985F9CA3BE01A9
:10E75000C801DF91CF911F910F9111CEFC018089EB
:10E7600090E0982F88272189822B449726A522950F
:10E770002F7034E0239F80199109112497FF02C064
:10E7800080E090E00895DB01D696A80FB91FFA014A
:10E79000420F4E1719F081918D93FBCFCB01820F61
:10E7A000911D0895FA0101900020E9F79F01215081
:10E7B0003109241B350BE7CF0F931F93CF93DF93C2
:10E7C00000D01F92CDB7DEB78C014B8369837A836B
:10E7D00018DF4B81842F8061F80187A769817A81D6
:10E7E000443029F06115710511F461E070E041E0F9
:10E7F000C80156DFF801108A88E2818BC80128DF42
:10E8000084E0F80180AB11AA42E06CE170E0C8013D
:10E810004A9658DEF80192AB83ABB80186E390E0EC
:10E820000F900F900F90DF91CF911F910F91A7CD77
:10E830000F931F93CF93DF93EC018B01CB0188964D
:10E84000988B898BCE01F0DE1AAA1BAAB801645EF0
:10E850007F4F42E0CE014A9635DE9AAB8BABBE01CC
:10E86000C801C696DF91CF911F910F9188CD611598
:10E87000710519F4009759F40895DB01E2E4F1E021
:10E880002D91219321E0E634F207D1F7F3CF78CE32
:10E8900090933901809300010895CF93DF93EC01A9
:10E8A000B0DE188A8CE2898BCE01D2DE82E18FA79E
:10E8B00040E061E070E0CE01F3DE1EA21FA2809175
:10E8C000030188A719A68D5F8093030182E08EABB8
:10E8D00084E08FAB85E088AF19AE80E68EA78AE032
:10E8E00088AB19AA42E060E270E0CE014A96EADD08
:10E8F0009AAB8BABBE018AE390E0DF91CF913FCD25
:10E900000F931F93CF93DF93EC018B01609137013D
:10E910007091380140E050DF89E18FA7B801CE0146
:10E92000DF91CF911F910F9183CF640F751F461711
:10E93000570741F0FA012491FC012193CF014F5F69
:10E940005F4FF5CF08950F931F93CF93DF93EC01A3
:10E950008B0180914201882309F44AC0CE01AE01A7
:10E960004A5F5F4FE6E4F1E03FEFDC013D93CD010C
:10E970002191DA012D93AD01B1E0EC34FB07A9F749
:10E9800088E08C8786E08D874CE850EE68E070E088
:10E99000CE010E96CADFDE01909646E451E0FA0100
:10E9A0002191AF01CD010A97FC0120831D92F1E076
:10E9B0004C345F07A1F7B801CE018696A2E4B1E01E
:10E9C000FB012191BF01FC012193CF014D919F01DA
:10E9D0002B503109F9014083F1E0A634BF0781F7DC
:10E9E000BE018AE290E0DF91CF911F910F91C7CCD9
:10E9F000DF91CF911F910F910895FF920F931F9375
:10EA0000CF93DF93EC018B016115710579F580914E
:10EA10003B01893069F48091010190910201892BB9
:10EA200039F4A7DC882321F06CE371E0CE018BDFA1
:10EA300080913B01813081F49CDC882369F06CE398
:10EA400071E0CE0180DF80913B01886080933B01C3
:10EA50001092020110920101809101019091020136
:10EA60000196909302018093010178C094DD882380
:10EA700031F18D89813011F4CE0126DE80913B0188
:10EA800083FF6CC01D89123009F068C044E050E07B
:10EA90006CE371E0CE014C9659D2892B09F05EC02F
:10EAA000AE014A5E5F4FE0915C01F0915D016091C3
:10EAB0003A018CE391E0099510933B014FC0B801F6
:10EAC000CE0183DD882309F449C08F89813089F420
:10EAD0008AA1883009F042C0E0914001F0914101E3
:10EAE000309719F0CE014A960995B801CE011DDE86
:10EAF00035C00633110590F1863081F59CA18091D7
:10EB0000390198132BC09DA180910001981326C054
:10EB1000FFA4F1FE03C0CE01C0DE20C0F4FE1EC083
:10EB2000CE011CDE9093380180933701892B41F48C
:10EB3000F0FE14C040E060E070E0CE013DDE0EC0AB
:10EB40002EA522952F7084E0289F900111242E5D20
:10EB50003F4F085011090217130718F480E090E0A6
:10EB600001C0C901DF91CF911F910F91FF900895CE
:10EB7000AF92BF92CF92DF92EF92FF920F931F93CB
:10EB8000CF93DF938C016B015A018F3F910561F0A8
:10EB900058F0803E21E0920708F043C081E090E009
:10EBA00097DA81E08BBF04C080E090E091DA1BBE71
:10EBB00063E080E0902F8DDA61E180E090E089DA17
:10EBC0007601E701CC19DD09C501F1E0AF16BF06FA
:10EBD00010F080E091E0C817D90738F4F70161918F
:10EBE00071917F01CE0177DAECCFCF3FD10509F0EB
:10EBF00030F46FEF7FEFCE016EDA2296F6CF65E04C
:10EC000080E0902F66DA61E180E090E0DF91CF91C3
:10EC10001F910F91FF90EF90DF90CF90BF90AF903A
:10EC200058CADF91CF911F910F91FF90EF90DF9025
:10EC3000CF90BF90AF900895009741F0EFECF7E0D0
:10EC40003197F1F700C000000197F6CF08958130A9
:10EC500011F41F9A08951F98089510926A001ABE21
:10EC600019BE18BE8FEF8BBB9FE09ABB88BB97E0A5
:10EC700097BB82BB11BA83B986EF82B988E18093D2
:10EC8000620080936100109290008CE089B988E95D
:10EC90008AB986E080939500089551C1089581E076
:10ECA0000E9B80E00895813011F41E9A08951E98FD
:10ECB0000895A89581B5886181BD87E181BDA8953A
:10ECC000CCDF8EE1E4E0F1E0AEEBB3E001900D9239
:10ECD0008A95E1F7879913C044E050E060E070E066
:10ECE00082E291E050D18EE1E4E0F1E0AEEBB3E0FE
:10ECF00001900D928A95E1F782E58CB907C04DE14C
:10ED000050E060E070E08EEB93E02DD180E09FDF7B
:10ED10008AE090E091DF1F9A8FE090E08DDF84EC35
:10ED200093E0A5DA80E08A95F1F766E774E084E184
:10ED30007EDA6AEC73E084EC93E099DD84E99EE886
:10ED4000A7DD00E010E032E3E32EF12C772473948A
:10ED5000C12CDD24D394A8956DED73E086E995E090
:10ED600043DB9093770980937609BC018DED93E0A6
:10ED700044DE90935B0180935A018091BC03909193
:10ED8000BD0301969093BD038093BC0381E090E0A6
:10ED900053DF8091BC039091BD038938934140F0CB
:10EDA00085B7816085BF85B78D7F85BFF8010995DF
:10EDB0008091BC039091BD03B701ADD0892B31F494
:10EDC0006EDF91E0811190E0892F6DDFA0905A01F4
:10EDD000B0905B01A114B10409F4BDCF4BE050E049
:10EDE00064E271E0C50183529C4FB0D0892B09F0D9
:10EDF000B2CF1092BD031092BC03B50168517C4F95
:10EE00007093DC036093DB0380914D01811127C077
:10EE1000F4E0AF16B10408F46EC0FB0160817181AB
:10EE2000828193813ADF6093520170935301809302
:10EE3000540190935501872E982EA92EBB248092C1
:10EE4000580190925901D82D20E0C22F6C1B7D0BE8
:10EE5000709357016093560170924D014CC0A09081
:10EE60005801B090590180914E0190914F01A11429
:10EE7000B10409F1D0927509C09274099C012F5F09
:10EE80003F4F30934F0120934E0140E051E070DE40
:10EE900080915001909151019395909351018093ED
:10EEA0005001809158019091590101979093590117
:10EEB0008093580120C0409156015091570158DE6F
:10EEC000809150019091510120915601309157014C
:10EED000820F931F909351018093500180914C01B8
:10EEE0008F5F80934C0185B7816085BF85B78D7F2B
:10EEF00085BFF501099540E351E060E070E08DEDDC
:10EF000093E050DC90935B0180935A01BC018DED3E
:10EF100093E0F6DC20CFAA1BBB1B51E107C0AA1F60
:10EF2000BB1FA617B70710F0A61BB70B881F991FAA
:10EF30005A95A9F780959095BC01CD010895692750
:10EF4000962769277827872778270895FB01DC0112
:10EF500004C08D910190801921F441505040C8F7B0
:10EF6000881B990B0895DC01CB01FC01E199FECFD0
:10EF700006C0FFBBEEBBE09A31960DB20D92415038
:10EF80005040B8F70895DC01CB0102C02D9105D0A7
:10EF900041505040D8F70895262FE199FECF9FBBEE
:10EFA0008EBB2DBB0FB6F894E29AE19A0FBE019684
:06EFB0000895F894FFCF64
:10EFB6005001000A828282820000424F58000205F8
:10EFC600C0A801DEFFFFFF00C0A80101C0A8010123
:10EFD600000000005745424D4554454F424F5800EA
:04EFE6004F4B00008D
:040000031000E00009
:00000001FF
